{
  "_format": "hh-sol-artifact-1",
  "contractName": "SmartModel",
  "sourceName": "contracts/smartmodel.sol",
  "abi": [
    {
      "anonymous": false,
      "inputs": [
        {
          "indexed": false,
          "internalType": "string",
          "name": "message",
          "type": "string"
        }
      ],
      "name": "DatasetDivided",
      "type": "event"
    },
    {
      "anonymous": false,
      "inputs": [],
      "name": "GlobalTrainingCompleted",
      "type": "event"
    },
    {
      "anonymous": false,
      "inputs": [
        {
          "indexed": false,
          "internalType": "uint256",
          "name": "groupID",
          "type": "uint256"
        },
        {
          "indexed": false,
          "internalType": "uint256",
          "name": "minRange",
          "type": "uint256"
        },
        {
          "indexed": false,
          "internalType": "uint256",
          "name": "maxRange",
          "type": "uint256"
        }
      ],
      "name": "GroupRange",
      "type": "event"
    },
    {
      "anonymous": false,
      "inputs": [],
      "name": "TrainingStarted",
      "type": "event"
    },
    {
      "anonymous": false,
      "inputs": [
        {
          "indexed": true,
          "internalType": "address",
          "name": "worker",
          "type": "address"
        },
        {
          "indexed": false,
          "internalType": "uint256",
          "name": "workerID",
          "type": "uint256"
        },
        {
          "indexed": false,
          "internalType": "uint256",
          "name": "groupID",
          "type": "uint256"
        }
      ],
      "name": "WorkerRegistered",
      "type": "event"
    },
    {
      "inputs": [],
      "name": "EPOCH_COUNT",
      "outputs": [
        {
          "internalType": "uint256",
          "name": "",
          "type": "uint256"
        }
      ],
      "stateMutability": "view",
      "type": "function"
    },
    {
      "inputs": [],
      "name": "SIZE_GROUP",
      "outputs": [
        {
          "internalType": "uint256",
          "name": "",
          "type": "uint256"
        }
      ],
      "stateMutability": "view",
      "type": "function"
    },
    {
      "inputs": [],
      "name": "SIZE_WORKER",
      "outputs": [
        {
          "internalType": "uint256",
          "name": "",
          "type": "uint256"
        }
      ],
      "stateMutability": "view",
      "type": "function"
    },
    {
      "inputs": [],
      "name": "allGroupsComplete",
      "outputs": [
        {
          "internalType": "bool",
          "name": "",
          "type": "bool"
        }
      ],
      "stateMutability": "nonpayable",
      "type": "function"
    },
    {
      "inputs": [],
      "name": "avgGradientsHash",
      "outputs": [
        {
          "internalType": "string",
          "name": "",
          "type": "string"
        }
      ],
      "stateMutability": "view",
      "type": "function"
    },
    {
      "inputs": [
        {
          "internalType": "uint256",
          "name": "sizeRow",
          "type": "uint256"
        }
      ],
      "name": "dataDivision",
      "outputs": [],
      "stateMutability": "nonpayable",
      "type": "function"
    },
    {
      "inputs": [],
      "name": "getAvgGradients",
      "outputs": [
        {
          "internalType": "string",
          "name": "",
          "type": "string"
        }
      ],
      "stateMutability": "view",
      "type": "function"
    },
    {
      "inputs": [],
      "name": "getEpoch",
      "outputs": [
        {
          "internalType": "uint256",
          "name": "",
          "type": "uint256"
        }
      ],
      "stateMutability": "pure",
      "type": "function"
    },
    {
      "inputs": [
        {
          "internalType": "uint256",
          "name": "_groupID",
          "type": "uint256"
        }
      ],
      "name": "getGroupData",
      "outputs": [
        {
          "components": [
            {
              "internalType": "uint256",
              "name": "minRange",
              "type": "uint256"
            },
            {
              "internalType": "uint256",
              "name": "maxRange",
              "type": "uint256"
            }
          ],
          "internalType": "struct SmartModel.Range",
          "name": "_range",
          "type": "tuple"
        }
      ],
      "stateMutability": "view",
      "type": "function"
    },
    {
      "inputs": [],
      "name": "getRangeDatasetByWorkerID",
      "outputs": [
        {
          "components": [
            {
              "internalType": "uint256",
              "name": "minRange",
              "type": "uint256"
            },
            {
              "internalType": "uint256",
              "name": "maxRange",
              "type": "uint256"
            }
          ],
          "internalType": "struct SmartModel.Range",
          "name": "",
          "type": "tuple"
        }
      ],
      "stateMutability": "view",
      "type": "function"
    },
    {
      "inputs": [],
      "name": "getSizeGroups",
      "outputs": [
        {
          "internalType": "uint256",
          "name": "",
          "type": "uint256"
        }
      ],
      "stateMutability": "pure",
      "type": "function"
    },
    {
      "inputs": [],
      "name": "getWorkerAddresses",
      "outputs": [
        {
          "internalType": "address[]",
          "name": "",
          "type": "address[]"
        }
      ],
      "stateMutability": "view",
      "type": "function"
    },
    {
      "inputs": [],
      "name": "getWorkerID",
      "outputs": [
        {
          "internalType": "uint256",
          "name": "",
          "type": "uint256"
        }
      ],
      "stateMutability": "view",
      "type": "function"
    },
    {
      "inputs": [],
      "name": "globalMetrics",
      "outputs": [
        {
          "internalType": "uint256",
          "name": "loss",
          "type": "uint256"
        },
        {
          "internalType": "uint256",
          "name": "accuracy",
          "type": "uint256"
        }
      ],
      "stateMutability": "view",
      "type": "function"
    },
    {
      "inputs": [
        {
          "internalType": "bool",
          "name": "_isOwner",
          "type": "bool"
        }
      ],
      "name": "register",
      "outputs": [
        {
          "internalType": "uint256",
          "name": "",
          "type": "uint256"
        },
        {
          "internalType": "uint256",
          "name": "",
          "type": "uint256"
        }
      ],
      "stateMutability": "nonpayable",
      "type": "function"
    },
    {
      "inputs": [],
      "name": "setTrainningComplete",
      "outputs": [],
      "stateMutability": "nonpayable",
      "type": "function"
    },
    {
      "inputs": [],
      "name": "startTraining",
      "outputs": [],
      "stateMutability": "nonpayable",
      "type": "function"
    },
    {
      "inputs": [],
      "name": "totalWorkers",
      "outputs": [
        {
          "internalType": "uint256",
          "name": "",
          "type": "uint256"
        }
      ],
      "stateMutability": "view",
      "type": "function"
    },
    {
      "inputs": [],
      "name": "trainingInProgress",
      "outputs": [
        {
          "internalType": "bool",
          "name": "",
          "type": "bool"
        }
      ],
      "stateMutability": "view",
      "type": "function"
    },
    {
      "inputs": [],
      "name": "uploadDatasetRange",
      "outputs": [
        {
          "internalType": "bool",
          "name": "",
          "type": "bool"
        }
      ],
      "stateMutability": "view",
      "type": "function"
    },
    {
      "inputs": [
        {
          "internalType": "string",
          "name": "newGradients",
          "type": "string"
        }
      ],
      "name": "uploadNewGradient",
      "outputs": [],
      "stateMutability": "nonpayable",
      "type": "function"
    },
    {
      "inputs": [
        {
          "internalType": "uint256",
          "name": "",
          "type": "uint256"
        }
      ],
      "name": "workerAddresses",
      "outputs": [
        {
          "internalType": "address",
          "name": "",
          "type": "address"
        }
      ],
      "stateMutability": "view",
      "type": "function"
    },
    {
      "inputs": [
        {
          "internalType": "address",
          "name": "",
          "type": "address"
        }
      ],
      "name": "workers",
      "outputs": [
        {
          "internalType": "uint256",
          "name": "workerID",
          "type": "uint256"
        },
        {
          "internalType": "uint256",
          "name": "groupID",
          "type": "uint256"
        },
        {
          "internalType": "bool",
          "name": "isOwner",
          "type": "bool"
        },
        {
          "internalType": "bool",
          "name": "trainingComplete",
          "type": "bool"
        }
      ],
      "stateMutability": "view",
      "type": "function"
    }
  ],
  "bytecode": "0x60806040526000600c60006101000a81548160ff0219169083151502179055506000600c60016101000a81548160ff021916908315150217905550348015604557600080fd5b5061252f806100556000396000f3fe608060405234801561001057600080fd5b506004361061014d5760003560e01c8063591a4360116100c3578063be1231451161007c578063be12314514610374578063c2334c6f146103a5578063c6fca969146103c3578063d5d1c6ee146103e1578063d80752fd146103eb578063f7487992146104075761014d565b8063591a4360146102d5578063702e08af146102f3578063757991a81461030f5780637821e39c1461032d5780638b1911dd1461034c578063afc422271461036a5761014d565b806339c126361161011557806339c12636146101fa5780633e4852bd146102185780634048a2571461024857806341347eee1461027b5780634ba4d616146102995780634ff00e5f146102b75761014d565b80630361c9e0146101525780630a318da01461017057806311a77fd1146101a05780631d416f9b146101be578063381737b8146101dc575b600080fd5b61015a610425565b6040516101679190611597565b60405180910390f35b61018a60048036038101906101859190611603565b6104b3565b6040516101979190611671565b60405180910390f35b6101a86104f2565b6040516101b591906116a7565b60405180910390f35b6101c6610505565b6040516101d391906116a7565b60405180910390f35b6101e4610518565b6040516101f191906116d1565b60405180910390f35b61020261051e565b60405161020f91906117aa565b60405180910390f35b610232600480360381019061022d9190611603565b610631565b60405161023f919061180a565b60405180910390f35b610262600480360381019061025d9190611851565b610742565b604051610272949392919061187e565b60405180910390f35b61028361078c565b60405161029091906116d1565b60405180910390f35b6102a161085a565b6040516102ae9190611597565b60405180910390f35b6102bf6108ec565b6040516102cc91906116d1565b60405180910390f35b6102dd6108f5565b6040516102ea919061180a565b60405180910390f35b61030d600480360381019061030891906119f8565b610a03565b005b610317610aea565b60405161032491906116d1565b60405180910390f35b610335610af3565b604051610343929190611a41565b60405180910390f35b610354610b05565b60405161036191906116d1565b60405180910390f35b610372610b0a565b005b61038e60048036038101906103899190611a96565b610bec565b60405161039c929190611a41565b60405180910390f35b6103ad610f6f565b6040516103ba91906116a7565b60405180910390f35b6103cb611051565b6040516103d891906116d1565b60405180910390f35b6103e9611056565b005b61040560048036038101906104009190611603565b611284565b005b61040f6114e8565b60405161041c91906116d1565b60405180910390f35b6008805461043290611af2565b80601f016020809104026020016040519081016040528092919081815260200182805461045e90611af2565b80156104ab5780601f10610480576101008083540402835291602001916104ab565b820191906000526020600020905b81548152906001019060200180831161048e57829003601f168201915b505050505081565b600781815481106104c357600080fd5b906000526020600020016000915054906101000a900473ffffffffffffffffffffffffffffffffffffffff1681565b600c60019054906101000a900460ff1681565b600c60009054906101000a900460ff1681565b600b5481565b60606000600660003373ffffffffffffffffffffffffffffffffffffffff1673ffffffffffffffffffffffffffffffffffffffff16815260200190815260200160002060000154036105a5576040517f08c379a000000000000000000000000000000000000000000000000000000000815260040161059c90611b6f565b60405180910390fd5b600780548060200260200160405190810160405280929190818152602001828054801561062757602002820191906000526020600020905b8160009054906101000a900473ffffffffffffffffffffffffffffffffffffffff1673ffffffffffffffffffffffffffffffffffffffff16815260200190600101908083116105dd575b5050505050905090565b6106396114ed565b6000600660003373ffffffffffffffffffffffffffffffffffffffff1673ffffffffffffffffffffffffffffffffffffffff16815260200190815260200160002060000154036106be576040517f08c379a00000000000000000000000000000000000000000000000000000000081526004016106b590611b6f565b60405180910390fd5b60038210610701576040517f08c379a00000000000000000000000000000000000000000000000000000000081526004016106f890611bdb565b60405180910390fd5b6000826003811061071557610714611bfb565b5b60020201600001604051806040016040529081600082015481526020016001820154815250509050919050565b60066020528060005260406000206000915090508060000154908060010154908060020160009054906101000a900460ff16908060020160019054906101000a900460ff16905084565b600080600660003373ffffffffffffffffffffffffffffffffffffffff1673ffffffffffffffffffffffffffffffffffffffff1681526020019081526020016000206000015403610812576040517f08c379a000000000000000000000000000000000000000000000000000000000815260040161080990611b6f565b60405180910390fd5b600660003373ffffffffffffffffffffffffffffffffffffffff1673ffffffffffffffffffffffffffffffffffffffff16815260200190815260200160002060000154905090565b60606008805461086990611af2565b80601f016020809104026020016040519081016040528092919081815260200182805461089590611af2565b80156108e25780601f106108b7576101008083540402835291602001916108e2565b820191906000526020600020905b8154815290600101906020018083116108c557829003601f168201915b5050505050905090565b60006003905090565b6108fd6114ed565b6000600660003373ffffffffffffffffffffffffffffffffffffffff1673ffffffffffffffffffffffffffffffffffffffff1681526020019081526020016000206000015403610982576040517f08c379a000000000000000000000000000000000000000000000000000000000815260040161097990611b6f565b60405180910390fd5b6000600660003373ffffffffffffffffffffffffffffffffffffffff1673ffffffffffffffffffffffffffffffffffffffff16815260200190815260200160002060010154600381106109d8576109d7611bfb565b5b6002020160000160405180604001604052908160008201548152602001600182015481525050905090565b600c60019054906101000a900460ff16610a52576040517f08c379a0000000000000000000000000000000000000000000000000000000008152600401610a4990611c76565b60405180910390fd5b6000600660003373ffffffffffffffffffffffffffffffffffffffff1673ffffffffffffffffffffffffffffffffffffffff1681526020019081526020016000206000015403610ad7576040517f08c379a0000000000000000000000000000000000000000000000000000000008152600401610ace90611ce2565b60405180910390fd5b8060089081610ae69190611eae565b5050565b60006005905090565b60098060000154908060010154905082565b600681565b6000600660003373ffffffffffffffffffffffffffffffffffffffff1673ffffffffffffffffffffffffffffffffffffffff1681526020019081526020016000206000015403610b8f576040517f08c379a0000000000000000000000000000000000000000000000000000000008152600401610b8690611b6f565b60405180910390fd5b6001600660003373ffffffffffffffffffffffffffffffffffffffff1673ffffffffffffffffffffffffffffffffffffffff16815260200190815260200160002060020160016101000a81548160ff021916908315150217905550565b6000806000600660003373ffffffffffffffffffffffffffffffffffffffff1673ffffffffffffffffffffffffffffffffffffffff1681526020019081526020016000206000015414610c74576040517f08c379a0000000000000000000000000000000000000000000000000000000008152600401610c6b90611fcc565b60405180910390fd5b6006600b5410610cb9576040517f08c379a0000000000000000000000000000000000000000000000000000000008152600401610cb090612038565b60405180910390fd5b600b6000815480929190610ccc90612087565b91905055506040518060800160405280600b54815260200160036001600b54610cf591906120cf565b610cff9190612132565b8152602001841515815260200160001515815250600660003373ffffffffffffffffffffffffffffffffffffffff1673ffffffffffffffffffffffffffffffffffffffff168152602001908152602001600020600082015181600001556020820151816001015560408201518160020160006101000a81548160ff02191690831515021790555060608201518160020160016101000a81548160ff0219169083151502179055509050506007339080600181540180825580915050600190039060005260206000200160009091909190916101000a81548173ffffffffffffffffffffffffffffffffffffffff021916908373ffffffffffffffffffffffffffffffffffffffff1602179055503373ffffffffffffffffffffffffffffffffffffffff167f67aca58914a73ab9cfba5671c3dae6e9671c1331a0493e76adf64bd925ac1e43600660003373ffffffffffffffffffffffffffffffffffffffff1673ffffffffffffffffffffffffffffffffffffffff16815260200190815260200160002060000154600660003373ffffffffffffffffffffffffffffffffffffffff1673ffffffffffffffffffffffffffffffffffffffff16815260200190815260200160002060010154604051610ed8929190611a41565b60405180910390a2600660003373ffffffffffffffffffffffffffffffffffffffff1673ffffffffffffffffffffffffffffffffffffffff16815260200190815260200160002060000154600660003373ffffffffffffffffffffffffffffffffffffffff1673ffffffffffffffffffffffffffffffffffffffff1681526020019081526020016000206001015491509150915091565b600080600090505b60078054905081101561102d576006600060078381548110610f9c57610f9b611bfb565b5b9060005260206000200160009054906101000a900473ffffffffffffffffffffffffffffffffffffffff1673ffffffffffffffffffffffffffffffffffffffff1673ffffffffffffffffffffffffffffffffffffffff16815260200190815260200160002060020160019054906101000a900460ff1661102057600091505061104e565b8080600101915050610f77565b506000600c60016101000a81548160ff021916908315150217905550600190505b90565b600381565b600660003373ffffffffffffffffffffffffffffffffffffffff1673ffffffffffffffffffffffffffffffffffffffff16815260200190815260200160002060020160009054906101000a900460ff166110e5576040517f08c379a00000000000000000000000000000000000000000000000000000000081526004016110dc906121af565b60405180910390fd5b600c60009054906101000a900460ff16611134576040517f08c379a000000000000000000000000000000000000000000000000000000000815260040161112b90612241565b60405180910390fd5b600c60019054906101000a900460ff1615611184576040517f08c379a000000000000000000000000000000000000000000000000000000000815260040161117b906122ad565b60405180910390fd5b6001600c60016101000a81548160ff02191690831515021790555060005b60078054905081101561125557600060066000600784815481106111c9576111c8611bfb565b5b9060005260206000200160009054906101000a900473ffffffffffffffffffffffffffffffffffffffff1673ffffffffffffffffffffffffffffffffffffffff1673ffffffffffffffffffffffffffffffffffffffff16815260200190815260200160002060020160016101000a81548160ff02191690831515021790555080806001019150506111a2565b507fb4a92694b28838ffb38cd67999caf7a632f93688af5e94c2b075fd93f173814760405160405180910390a1565b600660003373ffffffffffffffffffffffffffffffffffffffff1673ffffffffffffffffffffffffffffffffffffffff16815260200190815260200160002060020160009054906101000a900460ff16611313576040517f08c379a000000000000000000000000000000000000000000000000000000000815260040161130a90612319565b60405180910390fd5b60008111611356576040517f08c379a000000000000000000000000000000000000000000000000000000000815260040161134d906123ab565b60405180910390fd5b600060038261136591906123cb565b905060006003836113769190612132565b90506000805b600381101561149157816000826003811061139a57611399611bfb565b5b600202016000016000018190555083826113b491906123fc565b915060008311156113de576001826113cc91906123fc565b91506001836113db91906120cf565b92505b6001826113eb91906120cf565b600082600381106113ff576113fe611bfb565b5b60020201600001600101819055507ff35db7fd7d40fb226c9db5483bf61d0fce12e6f52414f851c06c97311a9a1c1f816000836003811061144357611442611bfb565b5b60020201600001600001546000846003811061146257611461611bfb565b5b600202016000016001015460405161147c93929190612430565b60405180910390a1808060010191505061137c565b506001600c60006101000a81548160ff0219169083151502179055507f8eb5dc0990c3b57ee82a6171ca8ae0e4d4ad7a933255ebe19ee244e1ad0489cc6040516114da906124d9565b60405180910390a150505050565b600581565b604051806040016040528060008152602001600081525090565b600081519050919050565b600082825260208201905092915050565b60005b83811015611541578082015181840152602081019050611526565b60008484015250505050565b6000601f19601f8301169050919050565b600061156982611507565b6115738185611512565b9350611583818560208601611523565b61158c8161154d565b840191505092915050565b600060208201905081810360008301526115b1818461155e565b905092915050565b6000604051905090565b600080fd5b600080fd5b6000819050919050565b6115e0816115cd565b81146115eb57600080fd5b50565b6000813590506115fd816115d7565b92915050565b600060208284031215611619576116186115c3565b5b6000611627848285016115ee565b91505092915050565b600073ffffffffffffffffffffffffffffffffffffffff82169050919050565b600061165b82611630565b9050919050565b61166b81611650565b82525050565b60006020820190506116866000830184611662565b92915050565b60008115159050919050565b6116a18161168c565b82525050565b60006020820190506116bc6000830184611698565b92915050565b6116cb816115cd565b82525050565b60006020820190506116e660008301846116c2565b92915050565b600081519050919050565b600082825260208201905092915050565b6000819050602082019050919050565b61172181611650565b82525050565b60006117338383611718565b60208301905092915050565b6000602082019050919050565b6000611757826116ec565b61176181856116f7565b935061176c83611708565b8060005b8381101561179d5781516117848882611727565b975061178f8361173f565b925050600181019050611770565b5085935050505092915050565b600060208201905081810360008301526117c4818461174c565b905092915050565b6117d5816115cd565b82525050565b6040820160008201516117f160008501826117cc565b50602082015161180460208501826117cc565b50505050565b600060408201905061181f60008301846117db565b92915050565b61182e81611650565b811461183957600080fd5b50565b60008135905061184b81611825565b92915050565b600060208284031215611867576118666115c3565b5b60006118758482850161183c565b91505092915050565b600060808201905061189360008301876116c2565b6118a060208301866116c2565b6118ad6040830185611698565b6118ba6060830184611698565b95945050505050565b600080fd5b600080fd5b7f4e487b7100000000000000000000000000000000000000000000000000000000600052604160045260246000fd5b6119058261154d565b810181811067ffffffffffffffff82111715611924576119236118cd565b5b80604052505050565b60006119376115b9565b905061194382826118fc565b919050565b600067ffffffffffffffff821115611963576119626118cd565b5b61196c8261154d565b9050602081019050919050565b82818337600083830152505050565b600061199b61199684611948565b61192d565b9050828152602081018484840111156119b7576119b66118c8565b5b6119c2848285611979565b509392505050565b600082601f8301126119df576119de6118c3565b5b81356119ef848260208601611988565b91505092915050565b600060208284031215611a0e57611a0d6115c3565b5b600082013567ffffffffffffffff811115611a2c57611a2b6115c8565b5b611a38848285016119ca565b91505092915050565b6000604082019050611a5660008301856116c2565b611a6360208301846116c2565b9392505050565b611a738161168c565b8114611a7e57600080fd5b50565b600081359050611a9081611a6a565b92915050565b600060208284031215611aac57611aab6115c3565b5b6000611aba84828501611a81565b91505092915050565b7f4e487b7100000000000000000000000000000000000000000000000000000000600052602260045260246000fd5b60006002820490506001821680611b0a57607f821691505b602082108103611b1d57611b1c611ac3565b5b50919050565b7f576f726b6572206e6f7420726567697374657265640000000000000000000000600082015250565b6000611b59601583611512565b9150611b6482611b23565b602082019050919050565b60006020820190508181036000830152611b8881611b4c565b9050919050565b7f496e76616c69642067726f757020494400000000000000000000000000000000600082015250565b6000611bc5601083611512565b9150611bd082611b8f565b602082019050919050565b60006020820190508181036000830152611bf481611bb8565b9050919050565b7f4e487b7100000000000000000000000000000000000000000000000000000000600052603260045260246000fd5b7f547261696e696e67206e6f7420696e2070726f67726573730000000000000000600082015250565b6000611c60601883611512565b9150611c6b82611c2a565b602082019050919050565b60006020820190508181036000830152611c8f81611c53565b9050919050565b7f576f726b6572206973206e6f7420726567697374657265640000000000000000600082015250565b6000611ccc601883611512565b9150611cd782611c96565b602082019050919050565b60006020820190508181036000830152611cfb81611cbf565b9050919050565b60008190508160005260206000209050919050565b60006020601f8301049050919050565b600082821b905092915050565b600060088302611d647fffffffffffffffffffffffffffffffffffffffffffffffffffffffffffffffff82611d27565b611d6e8683611d27565b95508019841693508086168417925050509392505050565b6000819050919050565b6000611dab611da6611da1846115cd565b611d86565b6115cd565b9050919050565b6000819050919050565b611dc583611d90565b611dd9611dd182611db2565b848454611d34565b825550505050565b600090565b611dee611de1565b611df9818484611dbc565b505050565b5b81811015611e1d57611e12600082611de6565b600181019050611dff565b5050565b601f821115611e6257611e3381611d02565b611e3c84611d17565b81016020851015611e4b578190505b611e5f611e5785611d17565b830182611dfe565b50505b505050565b600082821c905092915050565b6000611e8560001984600802611e67565b1980831691505092915050565b6000611e9e8383611e74565b9150826002028217905092915050565b611eb782611507565b67ffffffffffffffff811115611ed057611ecf6118cd565b5b611eda8254611af2565b611ee5828285611e21565b600060209050601f831160018114611f185760008415611f06578287015190505b611f108582611e92565b865550611f78565b601f198416611f2686611d02565b60005b82811015611f4e57848901518255600182019150602085019450602081019050611f29565b86831015611f6b5784890151611f67601f891682611e74565b8355505b6001600288020188555050505b505050505050565b7f576f726b657220616c7265616479207265676973746572656400000000000000600082015250565b6000611fb6601983611512565b9150611fc182611f80565b602082019050919050565b60006020820190508181036000830152611fe581611fa9565b9050919050565b7f576f726b6572732069732046756c6c0000000000000000000000000000000000600082015250565b6000612022600f83611512565b915061202d82611fec565b602082019050919050565b6000602082019050818103600083015261205181612015565b9050919050565b7f4e487b7100000000000000000000000000000000000000000000000000000000600052601160045260246000fd5b6000612092826115cd565b91507fffffffffffffffffffffffffffffffffffffffffffffffffffffffffffffffff82036120c4576120c3612058565b5b600182019050919050565b60006120da826115cd565b91506120e5836115cd565b92508282039050818111156120fd576120fc612058565b5b92915050565b7f4e487b7100000000000000000000000000000000000000000000000000000000600052601260045260246000fd5b600061213d826115cd565b9150612148836115cd565b92508261215857612157612103565b5b828206905092915050565b7f4f6e6c79206f776e65722063616e20737461727420747261696e696e67000000600082015250565b6000612199601d83611512565b91506121a482612163565b602082019050919050565b600060208201905081810360008301526121c88161218c565b9050919050565b7f547261696e696e6720486173206e6f207365742052616e6765206f662064617460008201527f6173657400000000000000000000000000000000000000000000000000000000602082015250565b600061222b602483611512565b9150612236826121cf565b604082019050919050565b6000602082019050818103600083015261225a8161221e565b9050919050565b7f547261696e696e6720616c726561647920696e2070726f677265737300000000600082015250565b6000612297601c83611512565b91506122a282612261565b602082019050919050565b600060208201905081810360008301526122c68161228a565b9050919050565b7f4f6e6c79206f776e65722063616e206469766964652064617461736574000000600082015250565b6000612303601d83611512565b915061230e826122cd565b602082019050919050565b60006020820190508181036000830152612332816122f6565b9050919050565b7f446174617365742073697a65206d75737420626520677265617465722074686160008201527f6e207a65726f0000000000000000000000000000000000000000000000000000602082015250565b6000612395602683611512565b91506123a082612339565b604082019050919050565b600060208201905081810360008301526123c481612388565b9050919050565b60006123d6826115cd565b91506123e1836115cd565b9250826123f1576123f0612103565b5b828204905092915050565b6000612407826115cd565b9150612412836115cd565b925082820190508082111561242a57612429612058565b5b92915050565b600060608201905061244560008301866116c2565b61245260208301856116c2565b61245f60408301846116c2565b949350505050565b7f44617461207375636365737366756c6c79206469766964656420657175616c6c60008201527f7920616d6f6e672067726f7570732e0000000000000000000000000000000000602082015250565b60006124c3602f83611512565b91506124ce82612467565b604082019050919050565b600060208201905081810360008301526124f2816124b6565b905091905056fea2646970667358221220b8d234877fab51fc35ac0a376b347bc7ce384eab2b85c7324190cac3e398807264736f6c634300081b0033",
  "linkReferences": {},
  "deployedLinkReferences": {}
}