{
  "_format": "hh-sol-artifact-1",
  "contractName": "SmartModel",
  "sourceName": "contracts/smartmodel.sol",
  "abi": [
    {
      "anonymous": false,
      "inputs": [
        {
          "indexed": false,
          "internalType": "string",
          "name": "message",
          "type": "string"
        }
      ],
      "name": "DatasetDivided",
      "type": "event"
    },
    {
      "anonymous": false,
      "inputs": [],
      "name": "GlobalTrainingCompleted",
      "type": "event"
    },
    {
      "anonymous": false,
      "inputs": [
        {
          "indexed": false,
          "internalType": "uint256",
          "name": "groupID",
          "type": "uint256"
        },
        {
          "indexed": false,
          "internalType": "uint256",
          "name": "minRange",
          "type": "uint256"
        },
        {
          "indexed": false,
          "internalType": "uint256",
          "name": "maxRange",
          "type": "uint256"
        }
      ],
      "name": "GroupRange",
      "type": "event"
    },
    {
      "anonymous": false,
      "inputs": [],
      "name": "Reset",
      "type": "event"
    },
    {
      "anonymous": false,
      "inputs": [],
      "name": "TrainingStarted",
      "type": "event"
    },
    {
      "anonymous": false,
      "inputs": [
        {
          "indexed": true,
          "internalType": "address",
          "name": "worker",
          "type": "address"
        },
        {
          "indexed": false,
          "internalType": "uint256",
          "name": "workerID",
          "type": "uint256"
        },
        {
          "indexed": false,
          "internalType": "uint256",
          "name": "groupID",
          "type": "uint256"
        }
      ],
      "name": "WorkerRegistered",
      "type": "event"
    },
    {
      "inputs": [
        {
          "internalType": "uint256",
          "name": "epoch",
          "type": "uint256"
        },
        {
          "internalType": "uint256",
          "name": "sizeGroup",
          "type": "uint256"
        }
      ],
      "name": "Setting",
      "outputs": [],
      "stateMutability": "nonpayable",
      "type": "function"
    },
    {
      "inputs": [],
      "name": "allGroupsComplete",
      "outputs": [
        {
          "internalType": "bool",
          "name": "",
          "type": "bool"
        }
      ],
      "stateMutability": "nonpayable",
      "type": "function"
    },
    {
      "inputs": [
        {
          "internalType": "uint256",
          "name": "sizeRow",
          "type": "uint256"
        }
      ],
      "name": "dataDivision",
      "outputs": [],
      "stateMutability": "nonpayable",
      "type": "function"
    },
    {
      "inputs": [],
      "name": "getAvgGradients",
      "outputs": [
        {
          "internalType": "string",
          "name": "",
          "type": "string"
        }
      ],
      "stateMutability": "view",
      "type": "function"
    },
    {
      "inputs": [],
      "name": "getEpoch",
      "outputs": [
        {
          "internalType": "uint256",
          "name": "",
          "type": "uint256"
        }
      ],
      "stateMutability": "view",
      "type": "function"
    },
    {
      "inputs": [
        {
          "internalType": "uint256",
          "name": "_groupID",
          "type": "uint256"
        }
      ],
      "name": "getGroupData",
      "outputs": [
        {
          "components": [
            {
              "internalType": "uint256",
              "name": "minRange",
              "type": "uint256"
            },
            {
              "internalType": "uint256",
              "name": "maxRange",
              "type": "uint256"
            }
          ],
          "internalType": "struct SmartModel.Range",
          "name": "_range",
          "type": "tuple"
        }
      ],
      "stateMutability": "view",
      "type": "function"
    },
    {
      "inputs": [],
      "name": "getRangeDatasetByWorkerID",
      "outputs": [
        {
          "components": [
            {
              "internalType": "uint256",
              "name": "minRange",
              "type": "uint256"
            },
            {
              "internalType": "uint256",
              "name": "maxRange",
              "type": "uint256"
            }
          ],
          "internalType": "struct SmartModel.Range",
          "name": "",
          "type": "tuple"
        }
      ],
      "stateMutability": "view",
      "type": "function"
    },
    {
      "inputs": [],
      "name": "getSizeGroups",
      "outputs": [
        {
          "internalType": "uint256",
          "name": "",
          "type": "uint256"
        }
      ],
      "stateMutability": "view",
      "type": "function"
    },
    {
      "inputs": [],
      "name": "getTotalWorkers",
      "outputs": [
        {
          "internalType": "uint256",
          "name": "",
          "type": "uint256"
        }
      ],
      "stateMutability": "view",
      "type": "function"
    },
    {
      "inputs": [],
      "name": "getWorkerAddresses",
      "outputs": [
        {
          "internalType": "address[]",
          "name": "",
          "type": "address[]"
        }
      ],
      "stateMutability": "view",
      "type": "function"
    },
    {
      "inputs": [],
      "name": "getWorkerID",
      "outputs": [
        {
          "internalType": "uint256",
          "name": "",
          "type": "uint256"
        }
      ],
      "stateMutability": "view",
      "type": "function"
    },
    {
      "inputs": [
        {
          "internalType": "bool",
          "name": "_isOwner",
          "type": "bool"
        }
      ],
      "name": "register",
      "outputs": [
        {
          "internalType": "uint256",
          "name": "",
          "type": "uint256"
        },
        {
          "internalType": "uint256",
          "name": "",
          "type": "uint256"
        }
      ],
      "stateMutability": "nonpayable",
      "type": "function"
    },
    {
      "inputs": [],
      "name": "reset",
      "outputs": [],
      "stateMutability": "nonpayable",
      "type": "function"
    },
    {
      "inputs": [],
      "name": "setTrainningComplete",
      "outputs": [],
      "stateMutability": "nonpayable",
      "type": "function"
    },
    {
      "inputs": [],
      "name": "startTraining",
      "outputs": [],
      "stateMutability": "nonpayable",
      "type": "function"
    },
    {
      "inputs": [
        {
          "internalType": "string",
          "name": "newGradients",
          "type": "string"
        }
      ],
      "name": "uploadNewGradient",
      "outputs": [],
      "stateMutability": "nonpayable",
      "type": "function"
    }
  ],
  "bytecode": "0x60806040526000600360006101000a81548160ff0219169083151502179055506000600360016101000a81548160ff021916908315150217905550348015604557600080fd5b5061249a806100556000396000f3fe608060405234801561001057600080fd5b50600436106101005760003560e01c8063757991a811610097578063d5d1c6ee11610066578063d5d1c6ee1461027c578063d80752fd14610286578063d826f88f146102a2578063e0cd0694146102ac57610100565b8063757991a814610205578063afc4222714610223578063be1231451461022d578063c2334c6f1461025e57610100565b80634ba4d616116100d35780634ba4d6161461018f5780634ff00e5f146101ad578063591a4360146101cb578063702e08af146101e957610100565b80632330a2541461010557806339c12636146101235780633e4852bd1461014157806341347eee14610171575b600080fd5b61010d6102c8565b60405161011a9190611513565b60405180910390f35b61012b6102d2565b604051610138919061161e565b60405180910390f35b61015b60048036038101906101569190611680565b6103e5565b60405161016891906116eb565b60405180910390f35b610179610501565b6040516101869190611513565b60405180910390f35b6101976105cf565b6040516101a49190611796565b60405180910390f35b6101b5610661565b6040516101c29190611513565b60405180910390f35b6101d361066b565b6040516101e091906116eb565b60405180910390f35b61020360048036038101906101fe91906118ed565b610783565b005b61020d61086a565b60405161021a9190611513565b60405180910390f35b61022b610873565b005b6102476004803603810190610242919061196e565b610955565b60405161025592919061199b565b60405180910390f35b610266610c94565b60405161027391906119d3565b60405180910390f35b610284610d76565b005b6102a0600480360381019061029b9190611680565b610fa4565b005b6102aa611233565b005b6102c660048036038101906102c191906119ee565b6113ef565b005b6000600254905090565b60606000600560003373ffffffffffffffffffffffffffffffffffffffff1673ffffffffffffffffffffffffffffffffffffffff1681526020019081526020016000206000015403610359576040517f08c379a000000000000000000000000000000000000000000000000000000000815260040161035090611a7a565b60405180910390fd5b60078054806020026020016040519081016040528092919081815260200182805480156103db57602002820191906000526020600020905b8160009054906101000a900473ffffffffffffffffffffffffffffffffffffffff1673ffffffffffffffffffffffffffffffffffffffff1681526020019060010190808311610391575b5050505050905090565b6103ed611450565b6000600560003373ffffffffffffffffffffffffffffffffffffffff1673ffffffffffffffffffffffffffffffffffffffff1681526020019081526020016000206000015403610472576040517f08c379a000000000000000000000000000000000000000000000000000000000815260040161046990611a7a565b60405180910390fd5b60015482106104b6576040517f08c379a00000000000000000000000000000000000000000000000000000000081526004016104ad90611ae6565b60405180910390fd5b600682815481106104ca576104c9611b06565b5b9060005260206000209060020201600001604051806040016040529081600082015481526020016001820154815250509050919050565b600080600560003373ffffffffffffffffffffffffffffffffffffffff1673ffffffffffffffffffffffffffffffffffffffff1681526020019081526020016000206000015403610587576040517f08c379a000000000000000000000000000000000000000000000000000000000815260040161057e90611a7a565b60405180910390fd5b600560003373ffffffffffffffffffffffffffffffffffffffff1673ffffffffffffffffffffffffffffffffffffffff16815260200190815260200160002060000154905090565b6060600480546105de90611b64565b80601f016020809104026020016040519081016040528092919081815260200182805461060a90611b64565b80156106575780601f1061062c57610100808354040283529160200191610657565b820191906000526020600020905b81548152906001019060200180831161063a57829003601f168201915b5050505050905090565b6000600154905090565b610673611450565b6000600560003373ffffffffffffffffffffffffffffffffffffffff1673ffffffffffffffffffffffffffffffffffffffff16815260200190815260200160002060000154036106f8576040517f08c379a00000000000000000000000000000000000000000000000000000000081526004016106ef90611a7a565b60405180910390fd5b6006600560003373ffffffffffffffffffffffffffffffffffffffff1673ffffffffffffffffffffffffffffffffffffffff168152602001908152602001600020600101548154811061074e5761074d611b06565b5b906000526020600020906002020160000160405180604001604052908160008201548152602001600182015481525050905090565b600360019054906101000a900460ff166107d2576040517f08c379a00000000000000000000000000000000000000000000000000000000081526004016107c990611be1565b60405180910390fd5b6000600560003373ffffffffffffffffffffffffffffffffffffffff1673ffffffffffffffffffffffffffffffffffffffff1681526020019081526020016000206000015403610857576040517f08c379a000000000000000000000000000000000000000000000000000000000815260040161084e90611c4d565b60405180910390fd5b80600490816108669190611e19565b5050565b60008054905090565b6000600560003373ffffffffffffffffffffffffffffffffffffffff1673ffffffffffffffffffffffffffffffffffffffff16815260200190815260200160002060000154036108f8576040517f08c379a00000000000000000000000000000000000000000000000000000000081526004016108ef90611a7a565b60405180910390fd5b6001600560003373ffffffffffffffffffffffffffffffffffffffff1673ffffffffffffffffffffffffffffffffffffffff16815260200190815260200160002060020160016101000a81548160ff021916908315150217905550565b6000806000600560003373ffffffffffffffffffffffffffffffffffffffff1673ffffffffffffffffffffffffffffffffffffffff16815260200190815260200160002060000154146109dd576040517f08c379a00000000000000000000000000000000000000000000000000000000081526004016109d490611f37565b60405180910390fd5b600260008154809291906109f090611f86565b9190505550604051806080016040528060025481526020016001546001600254610a1a9190611fce565b610a249190612031565b8152602001841515815260200160001515815250600560003373ffffffffffffffffffffffffffffffffffffffff1673ffffffffffffffffffffffffffffffffffffffff168152602001908152602001600020600082015181600001556020820151816001015560408201518160020160006101000a81548160ff02191690831515021790555060608201518160020160016101000a81548160ff0219169083151502179055509050506007339080600181540180825580915050600190039060005260206000200160009091909190916101000a81548173ffffffffffffffffffffffffffffffffffffffff021916908373ffffffffffffffffffffffffffffffffffffffff1602179055503373ffffffffffffffffffffffffffffffffffffffff167f67aca58914a73ab9cfba5671c3dae6e9671c1331a0493e76adf64bd925ac1e43600560003373ffffffffffffffffffffffffffffffffffffffff1673ffffffffffffffffffffffffffffffffffffffff16815260200190815260200160002060000154600560003373ffffffffffffffffffffffffffffffffffffffff1673ffffffffffffffffffffffffffffffffffffffff16815260200190815260200160002060010154604051610bfd92919061199b565b60405180910390a2600560003373ffffffffffffffffffffffffffffffffffffffff1673ffffffffffffffffffffffffffffffffffffffff16815260200190815260200160002060000154600560003373ffffffffffffffffffffffffffffffffffffffff1673ffffffffffffffffffffffffffffffffffffffff1681526020019081526020016000206001015491509150915091565b600080600090505b600780549050811015610d52576005600060078381548110610cc157610cc0611b06565b5b9060005260206000200160009054906101000a900473ffffffffffffffffffffffffffffffffffffffff1673ffffffffffffffffffffffffffffffffffffffff1673ffffffffffffffffffffffffffffffffffffffff16815260200190815260200160002060020160019054906101000a900460ff16610d45576000915050610d73565b8080600101915050610c9c565b506000600360016101000a81548160ff021916908315150217905550600190505b90565b600560003373ffffffffffffffffffffffffffffffffffffffff1673ffffffffffffffffffffffffffffffffffffffff16815260200190815260200160002060020160009054906101000a900460ff16610e05576040517f08c379a0000000000000000000000000000000000000000000000000000000008152600401610dfc906120ae565b60405180910390fd5b600360009054906101000a900460ff16610e54576040517f08c379a0000000000000000000000000000000000000000000000000000000008152600401610e4b90612140565b60405180910390fd5b600360019054906101000a900460ff1615610ea4576040517f08c379a0000000000000000000000000000000000000000000000000000000008152600401610e9b906121ac565b60405180910390fd5b6001600360016101000a81548160ff02191690831515021790555060005b600780549050811015610f755760006005600060078481548110610ee957610ee8611b06565b5b9060005260206000200160009054906101000a900473ffffffffffffffffffffffffffffffffffffffff1673ffffffffffffffffffffffffffffffffffffffff1673ffffffffffffffffffffffffffffffffffffffff16815260200190815260200160002060020160016101000a81548160ff0219169083151502179055508080600101915050610ec2565b507fb4a92694b28838ffb38cd67999caf7a632f93688af5e94c2b075fd93f173814760405160405180910390a1565b600560003373ffffffffffffffffffffffffffffffffffffffff1673ffffffffffffffffffffffffffffffffffffffff16815260200190815260200160002060020160009054906101000a900460ff16611033576040517f08c379a000000000000000000000000000000000000000000000000000000000815260040161102a90612218565b60405180910390fd5b60008111611076576040517f08c379a000000000000000000000000000000000000000000000000000000000815260040161106d906122aa565b60405180910390fd5b60006001548261108691906122ca565b90506000600154836110989190612031565b90506000805b6001548110156111dc5781600682815481106110bd576110bc611b06565b5b90600052602060002090600202016000016000018190555083826110e191906122fb565b9150600083111561110b576001826110f991906122fb565b91506001836111089190611fce565b92505b6001826111189190611fce565b6006828154811061112c5761112b611b06565b5b9060005260206000209060020201600001600101819055507ff35db7fd7d40fb226c9db5483bf61d0fce12e6f52414f851c06c97311a9a1c1f816006838154811061117a57611179611b06565b5b906000526020600020906002020160000160000154600684815481106111a3576111a2611b06565b5b9060005260206000209060020201600001600101546040516111c79392919061232f565b60405180910390a1808060010191505061109e565b506001600360006101000a81548160ff0219169083151502179055507f8eb5dc0990c3b57ee82a6171ca8ae0e4d4ad7a933255ebe19ee244e1ad0489cc604051611225906123d8565b60405180910390a150505050565b60066000611241919061146a565b60005b60078054905081101561131657600560006007838154811061126957611268611b06565b5b9060005260206000200160009054906101000a900473ffffffffffffffffffffffffffffffffffffffff1673ffffffffffffffffffffffffffffffffffffffff1673ffffffffffffffffffffffffffffffffffffffff16815260200190815260200160002060008082016000905560018201600090556002820160006101000a81549060ff02191690556002820160016101000a81549060ff021916905550508080600101915050611244565b5060076000611325919061148e565b60405180602001604052806000815250600490816113439190611e19565b5060405180604001604052806000815260200160008152506008600082015181600001556020820151816001015590505060006002819055506000600360006101000a81548160ff0219169083151502179055506000600360016101000a81548160ff0219169083151502179055506000808190555060006001819055507f6423db340205c829eeb91151b1c5d1dc6d7a2b8708b1621494e89ba90c87081e60405160405180910390a1565b6000821180156113ff5750600081115b61143e576040517f08c379a000000000000000000000000000000000000000000000000000000000815260040161143590612444565b60405180910390fd5b81600081905550806001819055505050565b604051806040016040528060008152602001600081525090565b508054600082556002029060005260206000209081019061148b91906114af565b50565b50805460008255906000526020600020908101906114ac91906114dd565b50565b5b808211156114d957600080820160008082016000905560018201600090555050506002016114b0565b5090565b5b808211156114f65760008160009055506001016114de565b5090565b6000819050919050565b61150d816114fa565b82525050565b60006020820190506115286000830184611504565b92915050565b600081519050919050565b600082825260208201905092915050565b6000819050602082019050919050565b600073ffffffffffffffffffffffffffffffffffffffff82169050919050565b60006115858261155a565b9050919050565b6115958161157a565b82525050565b60006115a7838361158c565b60208301905092915050565b6000602082019050919050565b60006115cb8261152e565b6115d58185611539565b93506115e08361154a565b8060005b838110156116115781516115f8888261159b565b9750611603836115b3565b9250506001810190506115e4565b5085935050505092915050565b6000602082019050818103600083015261163881846115c0565b905092915050565b6000604051905090565b600080fd5b600080fd5b61165d816114fa565b811461166857600080fd5b50565b60008135905061167a81611654565b92915050565b6000602082840312156116965761169561164a565b5b60006116a48482850161166b565b91505092915050565b6116b6816114fa565b82525050565b6040820160008201516116d260008501826116ad565b5060208201516116e560208501826116ad565b50505050565b600060408201905061170060008301846116bc565b92915050565b600081519050919050565b600082825260208201905092915050565b60005b83811015611740578082015181840152602081019050611725565b60008484015250505050565b6000601f19601f8301169050919050565b600061176882611706565b6117728185611711565b9350611782818560208601611722565b61178b8161174c565b840191505092915050565b600060208201905081810360008301526117b0818461175d565b905092915050565b600080fd5b600080fd5b7f4e487b7100000000000000000000000000000000000000000000000000000000600052604160045260246000fd5b6117fa8261174c565b810181811067ffffffffffffffff82111715611819576118186117c2565b5b80604052505050565b600061182c611640565b905061183882826117f1565b919050565b600067ffffffffffffffff821115611858576118576117c2565b5b6118618261174c565b9050602081019050919050565b82818337600083830152505050565b600061189061188b8461183d565b611822565b9050828152602081018484840111156118ac576118ab6117bd565b5b6118b784828561186e565b509392505050565b600082601f8301126118d4576118d36117b8565b5b81356118e484826020860161187d565b91505092915050565b6000602082840312156119035761190261164a565b5b600082013567ffffffffffffffff8111156119215761192061164f565b5b61192d848285016118bf565b91505092915050565b60008115159050919050565b61194b81611936565b811461195657600080fd5b50565b60008135905061196881611942565b92915050565b6000602082840312156119845761198361164a565b5b600061199284828501611959565b91505092915050565b60006040820190506119b06000830185611504565b6119bd6020830184611504565b9392505050565b6119cd81611936565b82525050565b60006020820190506119e860008301846119c4565b92915050565b60008060408385031215611a0557611a0461164a565b5b6000611a138582860161166b565b9250506020611a248582860161166b565b9150509250929050565b7f576f726b6572206e6f7420726567697374657265640000000000000000000000600082015250565b6000611a64601583611711565b9150611a6f82611a2e565b602082019050919050565b60006020820190508181036000830152611a9381611a57565b9050919050565b7f496e76616c69642067726f757020494400000000000000000000000000000000600082015250565b6000611ad0601083611711565b9150611adb82611a9a565b602082019050919050565b60006020820190508181036000830152611aff81611ac3565b9050919050565b7f4e487b7100000000000000000000000000000000000000000000000000000000600052603260045260246000fd5b7f4e487b7100000000000000000000000000000000000000000000000000000000600052602260045260246000fd5b60006002820490506001821680611b7c57607f821691505b602082108103611b8f57611b8e611b35565b5b50919050565b7f547261696e696e67206e6f7420696e2070726f67726573730000000000000000600082015250565b6000611bcb601883611711565b9150611bd682611b95565b602082019050919050565b60006020820190508181036000830152611bfa81611bbe565b9050919050565b7f576f726b6572206973206e6f7420726567697374657265640000000000000000600082015250565b6000611c37601883611711565b9150611c4282611c01565b602082019050919050565b60006020820190508181036000830152611c6681611c2a565b9050919050565b60008190508160005260206000209050919050565b60006020601f8301049050919050565b600082821b905092915050565b600060088302611ccf7fffffffffffffffffffffffffffffffffffffffffffffffffffffffffffffffff82611c92565b611cd98683611c92565b95508019841693508086168417925050509392505050565b6000819050919050565b6000611d16611d11611d0c846114fa565b611cf1565b6114fa565b9050919050565b6000819050919050565b611d3083611cfb565b611d44611d3c82611d1d565b848454611c9f565b825550505050565b600090565b611d59611d4c565b611d64818484611d27565b505050565b5b81811015611d8857611d7d600082611d51565b600181019050611d6a565b5050565b601f821115611dcd57611d9e81611c6d565b611da784611c82565b81016020851015611db6578190505b611dca611dc285611c82565b830182611d69565b50505b505050565b600082821c905092915050565b6000611df060001984600802611dd2565b1980831691505092915050565b6000611e098383611ddf565b9150826002028217905092915050565b611e2282611706565b67ffffffffffffffff811115611e3b57611e3a6117c2565b5b611e458254611b64565b611e50828285611d8c565b600060209050601f831160018114611e835760008415611e71578287015190505b611e7b8582611dfd565b865550611ee3565b601f198416611e9186611c6d565b60005b82811015611eb957848901518255600182019150602085019450602081019050611e94565b86831015611ed65784890151611ed2601f891682611ddf565b8355505b6001600288020188555050505b505050505050565b7f576f726b657220616c7265616479207265676973746572656400000000000000600082015250565b6000611f21601983611711565b9150611f2c82611eeb565b602082019050919050565b60006020820190508181036000830152611f5081611f14565b9050919050565b7f4e487b7100000000000000000000000000000000000000000000000000000000600052601160045260246000fd5b6000611f91826114fa565b91507fffffffffffffffffffffffffffffffffffffffffffffffffffffffffffffffff8203611fc357611fc2611f57565b5b600182019050919050565b6000611fd9826114fa565b9150611fe4836114fa565b9250828203905081811115611ffc57611ffb611f57565b5b92915050565b7f4e487b7100000000000000000000000000000000000000000000000000000000600052601260045260246000fd5b600061203c826114fa565b9150612047836114fa565b92508261205757612056612002565b5b828206905092915050565b7f4f6e6c79206f776e65722063616e20737461727420747261696e696e67000000600082015250565b6000612098601d83611711565b91506120a382612062565b602082019050919050565b600060208201905081810360008301526120c78161208b565b9050919050565b7f547261696e696e6720486173206e6f207365742052616e6765206f662064617460008201527f6173657400000000000000000000000000000000000000000000000000000000602082015250565b600061212a602483611711565b9150612135826120ce565b604082019050919050565b600060208201905081810360008301526121598161211d565b9050919050565b7f547261696e696e6720616c726561647920696e2070726f677265737300000000600082015250565b6000612196601c83611711565b91506121a182612160565b602082019050919050565b600060208201905081810360008301526121c581612189565b9050919050565b7f4f6e6c79206f776e65722063616e206469766964652064617461736574000000600082015250565b6000612202601d83611711565b915061220d826121cc565b602082019050919050565b60006020820190508181036000830152612231816121f5565b9050919050565b7f446174617365742073697a65206d75737420626520677265617465722074686160008201527f6e207a65726f0000000000000000000000000000000000000000000000000000602082015250565b6000612294602683611711565b915061229f82612238565b604082019050919050565b600060208201905081810360008301526122c381612287565b9050919050565b60006122d5826114fa565b91506122e0836114fa565b9250826122f0576122ef612002565b5b828204905092915050565b6000612306826114fa565b9150612311836114fa565b925082820190508082111561232957612328611f57565b5b92915050565b60006060820190506123446000830186611504565b6123516020830185611504565b61235e6040830184611504565b949350505050565b7f44617461207375636365737366756c6c79206469766964656420657175616c6c60008201527f7920616d6f6e672067726f7570732e0000000000000000000000000000000000602082015250565b60006123c2602f83611711565b91506123cd82612366565b604082019050919050565b600060208201905081810360008301526123f1816123b5565b9050919050565b7f4d75737420626520756e7369676e206e756d6265720000000000000000000000600082015250565b600061242e601583611711565b9150612439826123f8565b602082019050919050565b6000602082019050818103600083015261245d81612421565b905091905056fea26469706673582212201f95ee1b56f6dd3103f53ef182fbe19f4fc4aa412d53792cdb67de12ebf5519864736f6c634300081b0033",
  "linkReferences": {},
  "deployedLinkReferences": {}
}